:020000040800F2
:1000000000000220E1050008AD050008AF0500086A
:10001000B1050008B3050008B505000800000000A0
:10002000000000000000000000000000B70500080C
:10003000B905000800000000BB050008BD05000868
:1000400031060008310600083106000831060008B4
:1000500031060008310600083106000831060008A4
:10006000C505000831060008310600083106000801
:100070003106000831060008310600083106000884
:1000800031060008310600083106000800000000B3
:100090000000000000000000000000003106000821
:1000A0003106000831060008310600083106000854
:1000B0003106000831060008310600083106000844
:1000C0003106000831060008310600083106000834
:1000D0003106000831060008310600080000000063
:1000E0003106000831060008310600080000000053
:1000F00000000000000000000000000031060008C1
:100100000000000031060008310600083106000832
:1001100000000000000000000000000000000000DF
:1001200031060008310600083106000831060008D3
:100130003106000800000000000000000000000080
:100140000000000000000000000000003106000870
:1001500031060008310600083106000831060008A3
:100160003106000831060008000000000000000011
:10017000000000000000000000000000000000007F
:100180000000000031060008000000000000000030
:080190003106000831060008E9
:1001980053B94AB9002908BF00281CBF4FF0FF31E6
:1001A8004FF0FF3000F00CB8ADF1080C6DE904CE4B
:1001B80001F02AFEDDF804E0DDE9022304B070470F
:1001C800704700BF10B5054C237833B9044B13B101
:1001D8000448AFF300800123237010BD3C040020C5
:1001E800000000007C22000808B5034B1BB103493E
:1001F8000348AFF3008008BD000000004004002061
:100208007C220008F0B58BB000240594069407946E
:100218000894099401942E4B1A6B42F004021A6355
:100228001A6B02F004020192019A02941A6B42F0CE
:1002380080021A631A6B02F080020292029A0394F7
:100248001A6B42F001021A631A6B02F00102039260
:10025800039A04941A6B42F002021A631B6B03F0B0
:1002680002030493049B1B4F01224FF400513846AC
:1002780000F070FB184D22460221284600F06AFB68
:100288004FF400530593012606960794089405A990
:10029800384600F089FA02230593069607940894D5
:1002A80005A9284600F080FA042305930B4B069312
:1002B800079405A9284600F077FA22462146082027
:1002C80000F018FA082000F04DFA0BB0F0BD00BF9E
:1002D80000380240000802400000024000002110DF
:1002E80008B50948094B0360094B43600023836044
:1002F800C3604FF48042026143618361C36103625A
:1003080000F0ECFD08BD00BF5C0400200054004074
:10031800A086010070B586B00646F4238DF8173024
:100328000124B4B132230322B4211F4801F094F907
:100338000446431EDBB2012BF3D81C4D00220221D8
:10034800284600F007FB01220221284600F002FBA4
:10035800E7E732230293012301930DF1160200927D
:100368000022B421304601F005F89DF8163013F04C
:10037800010F01D006B070BD3224009401230DF1A5
:100388001702B421304600F087FE18238DF8153087
:100398000294012201920DF1150300931346B42132
:1003A800304600F035FFE5E75C040020000002401D
:1003B800F0B587B006460D46174600228DF8132083
:1003C80032230293012301930DF113040094B42105
:1003D80000F0D0FF9DF8133013F0080F02D1012070
:1003E80007B0F0BD322302930423019305AB0093B9
:1003F80001230222B421304600F0BCFF9DF81420EE
:100408009DF8153043EA02232B809DF816301B0215
:100418001BB29DF8172013433B800020E0E7000043
:10042800042800D0704708B54FF40051014800F087
:1004380097FA08BD0008024030B595B03022002177
:1004480008A801F075FE002403940494059406940A
:10045800079401941A4B1A6C42F080521A641B6C70
:1004680003F080530193019B0294164B1A6842F4DF
:1004780040421A601B6803F440430293029B022522
:10048800089501230B9310230C930E950F940823C2
:1004980010936423119312950423139308A801F071
:1004A800A5F90F230393049505944FF480530693FD
:1004B8000794032103A801F0E1FB15B030BD00BF8C
:1004C800003802400070004008B500F0D5F8FFF78A
:1004D800B3FFFFF797FEFFF703FF0448FFF71AFF84
:1004E800034A04490148FFF763FFF9E75C04002069
:1004F8005A0400205804002082B0002100910B4BC0
:100508005A6C42F480425A645A6C02F48042009257
:10051800009A01911A6C42F080521A641B6C03F025
:1005280080530193019B02B0704700BF003802401E
:1005380030B589B00023039304930593069307937A
:100548000268154B9A4201D009B030BD00250195CB
:10055800124C236B43F002032363236B03F0020363
:100568000193019BC0230393122304930123059352
:10057800032306930423079303A9094800F014F9F9
:100588000295236C43F400132364236C03F40013D3
:100598000293029BD8E700BF005400400038024095
:1005A800000402407047FEE7FEE7FEE7FEE77047FB
:1005B8007047704708B500F079F808BD08B5042001
:1005C80000F0D8F908BD0000024B4FF000629A60B5
:1005D800704700BF00ED00E0DFF834D0002103E0F1
:1005E8000C4B5B58435004310B480C4B42189A4251
:1005F800F6D30B4A02E0002342F8043B094B9A4227
:10060800F9D3FFF7E1FF01F06FFDFFF75DFF7047DA
:1006180000000220C4220008000000203C04002042
:100628003C040020D8040020FEE7000010B5044672
:100638000E4B18784FF47A73B3FBF0F30C4A10683A
:10064800B0FBF3F000F09CF868B90F2C01D9012039
:100658000AE0002221464FF0FF3000F04BF8054B2E
:100668001C60002000E0012010BD00BF0400002035
:10067800000000200800002008B50B4B1A6842F45F
:1006880000721A601A6842F480621A601A6842F4AA
:1006980080721A60032000F01BF80020FFF7C6FFE5
:1006A800FFF72AFF002008BD003C0240034A1168FA
:1006B800034B1B780B441360704700BFB004002045
:1006C80004000020014B1868704700BFB0040020E8
:1006D800074AD36823F4E0631B041B0C000200F4F0
:1006E800E060034343F0BF6343F40033D3607047D3
:1006F80000ED00E000B5194BDB68C3F30223C3F13A
:10070800070CBCF1040F28BF4FF0040C03F1040ED2
:10071800BEF1060F18D9033B4FF0FF3E0EFA0CFC52
:1007280021EA0C0199400EFA03F322EA0303194364
:1007380000280BDB0901C9B200F1604000F56140F7
:1007480080F800135DF804FB0023E5E700F00F00D4
:100758000901C9B2024B1954F4E700BF00ED00E0EB
:1007680014ED00E0002807DB00F01F024009012318
:100778009340024A42F82030704700BF00E100E091
:100788000138B0F1807F0BD24FF0E0235861054A61
:10079800F02182F823100020986107221A6170471F
:1007A8000120704700ED00E000230F2B00F2C88005
:1007B800F0B583B03AE0042200E00022AA403243B8
:1007C8000234604D45F824205F4A14686FEA0C0231
:1007D80024EA0C054E6816F4803F01D04CEA040563
:1007E800594C2560646802EA04054E6816F4003F17
:1007F80001D04CEA0405544C6560A46802EA04057B
:100808004E6816F4801F01D04CEA04054E4CA560D2
:10081800E46822404D6815F4001F01D04CEA040238
:10082800494CE26001330F2B00F2888001229A4084
:100838000C6804EA020C32EA0404F3D14C68651E21
:10084800012D03D9112C01D0122C12D185685E001C
:100858000324B44025EA0405CC68B4402C438460E2
:10086800456825EA02054C68C4F300129A402A43F9
:100878004260C5684FEA430E032404FA0EF4E243CB
:1008880025EA04058C6804FA0EF42C43C4604C680D
:10089800022C01D0122C0FD1DD08083550F8257034
:1008A80003F00704A6000F24B44027EA04070C69E4
:1008B800B4403C4340F82540046814404A6802F0BC
:1008C800030202FA0EF2224302604A6812F0805FC5
:1008D800A8D0002201921D4A546C44F48044546408
:1008E800526C02F480420192019A9C08A51C154A98
:1008F80052F8256003F0030295000F22AA4026EA69
:100908000206134A90423FF458AF02F580629042C3
:100918000ED002F5806290420CD002F580629042BF
:100928000AD002F5806290423FF445AF072245E7BE
:10093800012243E7022241E703223FE703B0F0BD6B
:10094800704700BF00380140003C014000380240B9
:10095800000002400AB18161704709048161704753
:10096800436931EA030301D0816170470904816159
:100978007047000008B5054B5B69034200D108BD0C
:10098800024B5861FFF74CFDF9E700BF003C0140FE
:1009980003685A6912F4806F01D1002070476FF420
:1009A80080625A6100230363202280F83D2080F88A
:1009B8003E30026C42F00402026480F83C300120B0
:1009C80070472DE9F04107460D4690461E4624E043
:1009D800FFF778FE069BC01AB04200D8EEB9002394
:1009E8003B63202287F83D2087F83E303A6C42F07E
:1009F80020023A6487F83C3001201EE03B689C697D
:100A080025EA040C1FFA8CFCBCFA8CFC4FEA5C1C2F
:100A1800E04511D1B6F1FF3FDAD1C5F30743012B09
:100A2800ECD13B685B6925EA030C1FFA8CFCBCFA25
:100A38008CFC4FEA5C1CEBE70020BDE8F0812DE957
:100A4800F04105460E46174698463DE01A6842F4BE
:100A580000721A602B686FF480625A6100232B635E
:100A6800202285F83D2085F83E302A6C42F00402A9
:100A78002A6485F83C30012034E0FFF723FEA0EB20
:100A88000800B84200D8FFB900232B63202285F85C
:100A98003D2085F83E302A6C42F020022A6485F811
:100AA8003C3001201EE02B689C6926EA0404A4B2AD
:100AB800003C18BF0124A4B12B685A6912F4806F56
:100AC800C4D1B7F1FF3FD8D1C6F30743012BEAD110
:100AD8002B685C6926EA0404A4B2003C18BF012410
:100AE800E9E70020BDE8F081F0B583B004460D4683
:100AF80016461F46C36A082B0DD0012B0BD013F5E1
:100B0800803F08D0036B122B0AD10268136843F4A4
:100B18008073136004E02268136843F480731360E1
:100B28000097334600224FF001112046FFF749FF96
:100B380080B92369B3F5804F16D1236805F0FE0507
:100B48001D613B46324613492046FFF778FFF8B946
:100B580003B0F0BD23681B6813F4807F02D04FF404
:100B6800007323640320F3E7EB11226803F0060304
:100B780043F0F00313613B46324607492046FFF72E
:100B88005EFF18B92368EDB21D61DAE70120DFE7DF
:100B98000120DDE7020001000800010070B50446ED
:100BA8000D46164623685B6913F0800F1CD120465A
:100BB800FFF7EEFED0B9B5F1FF3FF3D0FFF782FDA6
:100BC800801BA84201D8002DECD1002323632022EA
:100BD80084F83D2084F83E30226C42F020022264E2
:100BE80084F83C30012000E0002070BD0120FCE7C3
:100BF8002DE9F04385B004460D4691461F46DDF8C1
:100C080030800D9E0368196841F480711960009660
:100C1800434600224FF00111FFF7D3FE60B9236865
:100C280005F0FE051D613346424626492046FFF77A
:100C380006FF68B1012008E023681B6813F4807F71
:100C480002D04FF400732364032005B0BDE8F0839D
:100C58000023039323685A6903929B690393039BB8
:100C6800324641462046FFF799FF30B9012F0FD190
:100C780023685FFA89F61E61E7E7236C042B01D02D
:100C88000120E2E72268136843F400731360F7E772
:100C980023684FEA19221A61324641462046FFF777
:100CA8007DFF20B923685FFA89F61E61CDE7236CC2
:100CB800042B01D00120C8E72268136843F40073AD
:100CC8001360F7E7020001002DE9F04784B00446FD
:100CD8000D46164699460C9FDDF834800268136865
:100CE80043F4806313600368196841F480711960E4
:100CF800CDF800803B4600224FF00111FFF761FE5E
:100D080070B95FFA85FA236805F0FE051D61434650
:100D18003A4641492046FFF792FE68B1012008E0B3
:100D280023681B6813F4807F02D04FF40073236498
:100D3800032004B0BDE8F0870023039323685A69B1
:100D480003929B690393039B424639462046FFF76B
:100D580025FF80B9B9F1010F18D12368F6B21E61D9
:100D6800424639462046FFF719FF68B3236C042B27
:100D780024D00120DDE7236C042B01D00120D8E723
:100D88002268136843F400731360F7E72368320A94
:100D98001A61424639462046FFF700FF18B9236812
:100DA800F6B21E61DCE7236C042B01D00120C0E7FA
:100DB8002268136843F400731360F7E72268136826
:100DC80043F400731360D4E72268136843F4807314
:100DD8001360CDF800803B4600224FF001112046F9
:100DE800FFF7EFFD68B922684AF001031361434633
:100DF8003A4609492046FFF722FE002899D00120EB
:100E080097E723681B6813F4807F02D04FF40073C0
:100E1800236403208DE700BF0200010070B504467B
:100E28000D46164623685B6913F0040F1CD1204653
:100E3800FFF7AEFDD0B9B5F1FF3FF3D0FFF742FCA5
:100E4800801BA84201D8002DECD100232363202267
:100E580084F83D2084F83E30226C42F0200222645F
:100E680084F83C30012000E0002070BD0120FCE740
:100E780070B505460C4616462B68596911F0400FA7
:100E880029D1596911F0100F15D1FFF71BFC801BF0
:100E9800A04201D8002CEFD100232B63202285F833
:100EA8003D2085F83E302A6C42F020022A6485F8FD
:100EB8003C30012070BD6FF010025A6100232B6393
:100EC800202285F83D2085F83E302A6C2A6485F872
:100ED8003C300120EEE70020ECE70000002800F09D
:100EE800CC8070B5044690F83D30002B77D0242391
:100EF80084F83D302268136823F0010313602268E8
:100F0800136843F4004313602268136823F4004312
:100F1800136000F069FF62685A4B9A4264D85A4BD2
:100F280098428CBF00230123002B40F0A88057492A
:100F3800A1FB00318B0C25686A6822F03F0242EA67
:100F480091426A6021680A6A22F03F0266684D4D44
:100F5800AE424FD8013313430B622168CA6922F4A9
:100F68004F4222F0FF026668464B9E424CD8431E11
:100F78007600B3FBF6F3013340F6FC70034278D0F9
:100F8800C3F30B031343CB6121680B6823F0C00341
:100F9800E269206A024313430B6021688B6823F4DB
:100FA800034323F0FF032269E068024313438B6085
:100FB8002168CB6823F0FF036269A06902431343E9
:100FC800CB602268136843F001031360002020649B
:100FD800202384F83D30206384F83E0070BD80F8FB
:100FE8003C30FFF7A5FA82E7294B98428CBF0023D3
:100FF800012399E74FF4967505FB03F3254DA5FBEF
:1010080003539B090133A6E7A368BBB9451E06EB4A
:10101800460CB5FBFCF50135C5F30B05B5FA85F5AE
:101028006D0945BBC3B9013806EB4603B0FBF3F3C2
:101038000133C3F30B0343F40043A3E7451E06EB58
:10104800860C0CEB8C0CB5FBFCF50135C5F30B05D8
:10105800B5FA85F56D09E4E7013806EB860303EB7D
:101068008303B0FBF3F30133C3F30B0343F44043AF
:1010780088E7042386E7012384E7012070470120DD
:10108800ACE700BFA08601007F841E0083DE1B43FF
:10109800FF083D00D34D62102DE9F04385B00446AA
:1010A8000F46914698460C9EFFF70CFB054694F8B0
:1010B8003D00C0B2202804D00227384605B0BDE85C
:1010C800F0830095192301224F492046FFF779FC48
:1010D800002840F0928094F83C30012B00F08F807B
:1010E800012384F83C3023681A6812F0010F03D1F9
:1010F8001A6842F001021A602268136823F4006338
:101108001360212384F83D30102384F83E300023F7
:101118002364C4F82490A4F82A80638D23853B4B6C
:10112800E3622B46324639462046FFF7DDFC074688
:10113800002866D10023039323685A6903929B69A8
:101148000393039B11E0236C042B01D00127B4E720
:101158002268136843F400731360F7E72A463146A0
:101168002046FFF75BFE00282ED1238D002B36D0BA
:101178002A4631462046FFF711FD0028E3D1626A6E
:10118800236812781A61606A431C6362618D89B2B0
:10119800013989B26185238D013B9BB22385226881
:1011A800516911F0040FD9D0002BD7D043781361BF
:1011B800636A01336362638D9BB2013B9BB26385B3
:1011C800238D013B2385C9E7236C042B01D001271C
:1011D80073E72268136843F400731360F7E7226823
:1011E800136843F400731360202384F83D30002310
:1011F80084F83E3084F83C305FE702275DE7022739
:101208005BE7012759E700BF020010000000FFFF5D
:101218002DE9F04383B004460F46904699460C9E4C
:10122800FFF750FA054694F83D00C0B2202803D0D5
:10123800022003B0BDE8F0830095192301224B4931
:101248002046FFF7BEFB002840F0898094F83C3028
:10125800012B00F08680012384F83C3023681A684B
:1012680012F0010F03D11A6842F001021A602268D5
:10127800136823F400631360212384F83D3040236E
:1012880084F83E30002323640A9B6362BDF82C3047
:101298006385638D2385364BE362019500964B4643
:1012A800424639462046FFF7A3FC00285BD1238D30
:1012B800002B35D02A4631462046FFF76FFC20BB6D
:1012C800626A236812781A61626A531C6362218D0C
:1012D800013989B22185638D9BB2013B9BB263853D
:1012E8002368586910F0040FE1D00029DFD0527844
:1012F8001A61636A01336362238D013B2385638D21
:101308009BB2013B9BB26385D1E7236C042B01D0D0
:1013180001208EE72268136843F400731360F7E72F
:101328002A4631462046FFF779FD50B1236C042B3D
:1013380001D001207DE72268136843F4007313602D
:10134800F7E72268136843F400731360202384F8D6
:101358003D30002384F83E3084F83C3069E70220B1
:1013680067E7022065E7012063E700BF020010007D
:101378000000FFFF2DE9F04387B004460F46904672
:101388009946109EFFF79EF9054694F83D00C0B2B5
:10139800202804D00227384607B0BDE8F08300951E
:1013A8001923012288492046FFF70BFB002840F04B
:1013B800438194F83C30012B00F04081012384F8EC
:1013C8003C3023681A6812F0010F03D11A6842F002
:1013D80001021A602268136823F400631360222351
:1013E80084F83D30402384F83E30002323640E9B6C
:1013F8006362BDF83C306385638D2385734BE3627C
:10140800019500964B46424639462046FFF75CFC5C
:101418000746002840F01481238D5BB902932368A6
:101428005A6902929A690292029A1A6842F4007200
:101438001A6075E0012B0AD0022B1AD000230593FD
:1014480023685A6905929B690593059B68E02268A1
:10145800136823F4806313600023039323685A6995
:1014680003929A690392039A1A6842F400721A6006
:1014780056E02268136823F48063136022681368B7
:1014880043F4006313600023049323685A690492A9
:101498009B690493049B43E02A4631462046FFF7A4
:1014A800E7FC002840F0CE8023681A69636A1A7046
:1014B800636A01336362238D013B2385638D9BB28D
:1014C800013B9BB263852BE00095334600224049DF
:1014D8002046FFF776FA002840F0B68022681368A5
:1014E80043F40073136023681A69636A1A70626AA6
:1014F800531C6362238D013B2385638D9BB2013BA3
:101508009BB2638523681B695370636A0133636206
:10151800238D013B2385638D9BB2013B9BB2638581
:10152800238D002B7FD0032B54D8012BB4D0022B52
:10153800CAD000953346002225492046FFF741FAD4
:10154800002840F083802268136823F480631360C6
:1015580023681A69636A1A70636A01336362238DA8
:10156800013B2385638D9BB2013B9BB2638500954C
:101578003346002216492046FFF723FA002867D190
:101588002268136843F40073136023681A69636A56
:101598001A70626A531C6362238D013B2385638D35
:1015A8009BB2013B9BB2638523681B695370636AD6
:1015B80001336362238D013B2385638D9BB2013B1D
:1015C8009BB26385ACE700BF020010000000FFFF7C
:1015D800040001002A4631462046FFF749FC00284E
:1015E80038D123681A69636A1A70626A531C636285
:1015F800238D013B2385638D9BB2013B9BB26385A1
:101608002368596911F0040F8AD01B695370636A03
:1016180001336362238D013B2385638D9BB2013BBC
:101628009BB263857CE7202384F83D30002384F84F
:101638003E3084F83C30AEE60227ACE60227AAE644
:101648000127A8E60127A6E60127A4E60127A2E6C6
:101658000127A0E601279EE62DE9F04385B0044660
:10166800884691461D46FFF72DF894F83D30DBB2C9
:10167800202B03D0022005B0BDE8F0830646009079
:101688001923012258492046FFF79BF9002840F00A
:10169800A28094F83C30012B00F09F80012384F84D
:1016A8003C3023681A6812F0010F03D11A6842F01F
:1016B80001021A602268136823F40063136024236C
:1016C80084F83D3000232364A3F58033E3620127C7
:1016D80040E023681B6813F4807F02D04FF4007346
:1016E80023640320C7E7A02384F83D3022685369A8
:1016F800C3F340035269C2F3802294F83DC05FFAF5
:101708008CFCBCF1A00F09D043B93AB9FEF7DAFF57
:10171800801BA842E7D8002DE8D1E4E7202384F80D
:101728003D3023685A6912F0020F31D11A6842F429
:1017380000721A6023686FF480625A610096192358
:10174800012229492046FFF73CF9002849D10137F1
:101758004F4538D22268136843F4807313600096AB
:101768002B4600224FF001112046FFF72AF90028E6
:10177800AFD1236808F0FE021A61FEF7A3FF064600
:1017880022685369C3F340035269C2F38022B4E765
:101798001A6842F400721A600023039323685A6996
:1017A80003929B690393039B0096192301220E4918
:1017B8002046FFF706F990B9202384F83D3000232E
:1017C80084F83C3057E7202384F83D30002384F820
:1017D8003C3001204FE702204DE702204BE7012073
:1017E80049E7012047E700BF02001000002800F089
:1017F800DA8170B582B00446036813F0010F3BD05C
:101808009F4B9B6803F00C03042B2CD09C4B9B68CC
:1018180003F00C03082B21D06368B3F5803F4FD049
:10182800B3F5A02F52D0964B1A6822F480321A6072
:101838001A6822F480221A606368002B50D0FEF7E1
:1018480041FF05468E4B1B6813F4003F14D1FEF789
:1018580039FF401B6428F5D90320ABE1884B5B684E
:1018680013F4800FD8D0864B1B6813F4003F03D0C5
:101878006368002B00F09981236813F0020F54D09D
:101888007F4B9B6813F00C0F3ED07D4B9B6803F099
:101898000C03082B33D0E368002B68D0794B012266
:1018A8001A60FEF70FFF0546754B1B6813F0020F11
:1018B80054D1FEF707FF401B0228F5D9032079E130
:1018C8006F4A136843F480331360B5E76C4B1A68AA
:1018D80042F480221A601A6842F480321A60ABE738
:1018E800FEF7F0FE0546664B1B6813F4003FC3D0B5
:1018F800FEF7E8FE401B6428F5D903205AE1604B47
:101908005B6813F4800FC6D15D4B1B6813F0020FA0
:1019180003D0E368012B40F04A81594A136823F049
:10192800F803216943EAC1031360236813F0080F21
:1019380042D063696BB3534B0122C3F8802EFEF784
:10194800C1FE05464E4B5B6F13F0020F34D1FEF714
:10195800B9FE401B0228F5D903202BE1484A136839
:1019680023F0F803216943EAC1031360DDE7454B1F
:1019780000221A60FEF7A6FE0546414B1B6813F0CD
:10198800020FD2D0FEF79EFE401B0228F5D9032095
:1019980010E13C4B0022C3F8802EFEF793FE05466B
:1019A800374B5B6F13F0020F06D0FEF78BFE401B20
:1019B8000228F5D90320FDE0236813F0040F77D03F
:1019C8002F4B1B6C13F0805F33D1002301932C4BFA
:1019D8001A6C42F080521A641B6C03F08053019316
:1019E800019B0125284B1B6813F4807F23D0A36833
:1019F800012B34D0052B38D0214B1A6F22F001026D
:101A08001A671A6F22F004021A67A368002B3DD0E8
:101A1800FEF758FE06461A4B1B6F13F0020F46D10D
:101A2800FEF750FE801B41F288339842F3D9032019
:101A3800C0E00025D6E7144A136843F480731360A6
:101A4800FEF740FE0646104B1B6813F4807FCED18C
:101A5800FEF738FE801B0228F5D90320AAE0084AC1
:101A6800136F43F001031367CFE7054B1A6F42F07A
:101A780004021A671A6F42F001021A67C5E700BF2D
:101A8800003802400000474200700040FEF71AFE8E
:101A980006464F4B1B6F13F0020F08D0FEF712FEDD
:101AA800801B41F288339842F3D9032082E0E5B9DC
:101AB800A369002B7DD0464A926802F00C02082ADE
:101AC80051D0022B17D0434B00221A66FEF7FAFDBD
:101AD80004463F4B1B6813F0007F42D0FEF7F2FD2F
:101AE800001B0228F5D9032064E0394A136C23F05F
:101AF80080531364DCE7374B00221A66FEF7E2FDD9
:101B08000546334B1B6813F0007F06D0FEF7DAFD5D
:101B1800401B0228F5D903204CE0E369226A1343ED
:101B2800626A43EA8213A26A5208013A43EA02430C
:101B3800E26A43EA0263264A5360264B01221A6688
:101B4800FEF7C0FD0446224B1B6813F0007F06D148
:101B5800FEF7B8FD001B0228F5D903202AE0002073
:101B680028E0002026E0012B26D0194B5B6803F4FF
:101B78008001E269914221D103F03F02216A8A4241
:101B88001ED1616A47F6C0721A408A421AD103F41C
:101B98004032A16A8A4217D103F07063E26A934225
:101BA80014D1002006E001207047012002E0012046
:101BB80000E0002002B070BD0120FBE70120F9E73A
:101BC8000120F7E70120F5E70120F3E70120F1E71D
:101BD800003802400000474208B5254B9B6803F0D7
:101BE8000C03042B3FD0082B3FD1214B5A6802F03D
:101BF8003F025B6813F4800F12D01D4B5968C1F384
:101C080088111C480023A1FB0001FEF7C1FA184BFC
:101C18005B68C3F3014301335B00B0FBF3F025E0DD
:101C2800134B5968C1F3881C4FEA4C11B1EB0C00F7
:101C38006EEB0E0E4FEA8E1343EA90638101091A88
:101C480063EB0E03DB0043EA5173C90011EB0C0C84
:101C580043F10003990200234FEA8C2041EA9C518A
:101C6800FEF796FAD3E7034800E0034808BD00BF33
:101C78000038024040787D010024F400002800F07C
:101C88009B8070B50D4604464F4B1B6803F00F034D
:101C98008B4208D2CBB24C4A1370136803F00F037F
:101CA8008B4240F08B80236813F0020F17D013F09B
:101CB800040F04D0454A936843F4E05393602368C3
:101CC80013F0080F04D0414A936843F460439360CB
:101CD8003E4A936823F0F003A1680B43936023689E
:101CE80013F0010F32D06368012B21D09A1E012A0C
:101CF80025D9364A126812F0020F61D033498A6832
:101D080022F0030213438B60FEF7DCFC06462F4BE0
:101D18009B6803F00C036268B3EB820F16D0FEF7E2
:101D2800D1FC801B41F288339842F0D9032042E06D
:101D3800264A126812F4003FE0D101203BE0234A12
:101D4800126812F0007FD9D1012034E01E4B1B68C5
:101D580003F00F03AB4207D9EAB21B4B1A701B689A
:101D680003F00F03AB422DD1236813F0040F06D004
:101D7800164A936823F4E053E1680B4393602368A1
:101D880013F0080F07D0114A936823F460432169C0
:101D980043EAC1039360FFF71FFF0C4B9B68C3F333
:101DA80003130B4AD35CD8400A4B18600A4B1868D7
:101DB800FEF73CFC002070BD012070470120FAE7C7
:101DC8000120F8E70120F6E7003C02400038024015
:101DD800942200080000002008000020014B186829
:101DE800704700BF0000002008B5FFF7F7FF044B5D
:101DF8009B68C3F38223034AD35CD84008BD00BF65
:101E080000380240A42200082DE9F04F07468C460E
:101E18000846099E15463C461946002B40F0C680E8
:101E28008242B2FA82F746D94FB1C7F1200E24FA9E
:101E38000EFE00FA07F3BD404EEA030CBC404FEA21
:101E480015481FFA85FEBCFBF8F9220C08FB19C3DC
:101E580009FB0EFA42EA03439A4528D9EB1809F11F
:101E6800FF3004D29A4502D9A9F102002B44A3EB12
:101E78000A03A4B2B3FBF8F208FB123302FB0EFE0E
:101E880044EA0344A64514D92C1902F1FF3303D2BE
:101E9800A64501D9931E2C44A4EB0E0443EA004046
:101EA8001EB1FC40002334607360BDE8F08F4846E3
:101EB800DDE71346F0E702B9FFDE87BB831A01218D
:101EC8004FEA154EAAB2B3FBFEFC200C0EFB1C33E6
:101ED8000CFB02F840EA0343984563D9EB180CF170
:101EE800FF3004D2984502D9ACF102002B44A3EB91
:101EF8000803A4B2B3FBFEFC0EFB1C330CFB02F27E
:101F080044EA0344A2424FD92C190CF1FF3304D2FE
:101F1800A24202D9ACF102032C44A41ABEE7C7F1CD
:101F2800200C20FA0CF800FA07F324FA0CFCBD4048
:101F38004CEA03024FEA154EABB2B8FBFEFC110C9B
:101F48000EFB1C800CFB03F941EA0040814504FAB2
:101F580007F423D928180CF1FF3104D2814502D99E
:101F6800ACF102012844A0EB090092B2B0FBFEFCE0
:101F78000EFB1C000CFB03F842EA004398450FD9FE
:101F8800EB180CF1FF3204D2984502D9ACF10202E9
:101F98002B44A3EB080342EA014191E76146E2E7DB
:101FA8006246F6E76046A2E76346B6E7834205D98C
:101FB8000EB1C6E900700021084676E7B3FA83F14E
:101FC80081B9834201D3BA420AD8BC1A60EB030331
:101FD80001209C46002E68D0C6E9004C002164E729
:101FE8000846F7E7C1F1200C8B4022FA0CF41C4399
:101FF80002FA01F500FA01F327FA0CF220FA0CFBB9
:102008004FEA14491343BBFBF9F81FFA84FE09FB96
:1020180018BB1A0C08FB0EFA42EA0B42924507FA63
:1020280001F73ED9A21808F1FF3004D2924502D92F
:10203800A8F102002244A2EB0A029BB2B2FBF9F813
:1020480009FB182208FB0EFE43EA024296452AD9EC
:10205800A21808F1FF3304D2964502D9A8F1020369
:10206800224443EA0040A0FB0593A2EB0E029A42E9
:10207800CE46984602D306D14F4504D2B9EB050E99
:1020880063EB0408013886B1B7EB0E0362EB08076F
:1020980007FA0CFCCB404CEA0303CF40C6E90037F3
:1020A8009CE74046C7E74346DBE73146FDE60000CC
:1020B800002301461A46184600F08AB838B5084B7E
:1020C800084D5B1B9C1007D0043B1D44013C55F890
:1020D80004399847002CF9D1BDE8384000F0D0B851
:1020E800C4220008C022000870B50D4E0D4D761BA5
:1020F800B61006D0002455F8043B01349847A64290
:10210800F9D1094E094D761B00F0B4F8B61006D087
:10211800002455F8043B01349847A642F9D170BD14
:10212800B8220008B8220008C0220008B822000817
:10213800F0B4860746D0541E002A3CD0CAB20346E3
:1021480001E0013C37D303F8012B9D07F9D1032C9B
:102158002AD9CDB245EA05250F2C45EA054534D9DB
:10216800A4F1100222F00F0C03F1200716096744AE
:1021780003F1100242E9045542E902551032BA420D
:10218800F8D1721C14F00C0F03EB021204F00F06C6
:1021980013D0331F23F003030433134442F8045BC2
:1021A8009342FBD106F003042CB1CAB21C4403F8D5
:1021B800012B9C42FBD1F0BC704734461346002CDF
:1021C800F3D1F8E714460346C1E71A462646E0E786
:1021D8002DE9F047DFF87CA00646DAF800009846BB
:1021E8000F46914600F042F8194B1B68D3F8484156
:1021F80024B36568DAF800001F2D24DC4EB9AB1C47
:102208000135656044F8237000F032F80020BDE81D
:10221800F08704EB85030122C3F88890D4F888116D
:10222800AA401143022EC4F88811C3F80881E6D1E8
:10223800D4F88C311A43C4F88C21E0E703F5A6746E
:10224800C3F84841D5E700F013F84FF0FF30DEE758
:10225800AC22000838040020024B13B10248FFF7F3
:1022680027BF704700000000C5200008704700BF66
:10227800704700BFF8B500BFF8BC08BC9E46704761
:0C228800F8B500BFF8BC08BC9E467047CB
:102294000000000000000000010203040607080912
:0C22A400000000000102030410000020F4
:0822B00060FBFF7F010000004C
:0822B80061220008F101000899
:0422C000CD01000844
:1022C4000024F400010000001000000000000000E1
:1022D40000000000FC02002064030020CC03002066
:1022E40000000000000000000000000000000000EA
:1022F40000000000000000000000000000000000DA
:1023040000000000000000000000000000000000C9
:1023140000000000000000000000000000000000B9
:1023240000000000000000000000000000000000A9
:102334000000000000000000000000000000000099
:102344000000000000000000000000000000000089
:102354000000000000000000000000000000000079
:102364000000000000000000000000000000000069
:102374000000000000000000010000000000000058
:102384000E33CDAB34126DE6ECDE05000B0000001D
:102394000000000000000000000000000000000039
:1023A4000000000000000000000000000000000029
:1023B4000000000000000000000000000000000019
:1023C4000000000000000000000000000000000009
:0C26F4000000000000000000B404002002
:04000005080005E109
:00000001FF
